:020000040800F2
:1000000040090020B1030008090400084F18000847
:1000100009040008090400080904000800000000A1
:1000200000000000000000000000000009040008BB
:10003000090400080000000009040008AD110008D0
:10004000090400080904000809040008090400085C
:10005000090400080904000809040008090400084C
:10006000090400080904000809040008090400083C
:10007000090400080904000809040008090400082C
:10008000090400080904000809040008090400081C
:10009000090400080904000809040008090400080C
:1000A00009040008090400080904000809040008FC
:1000B00009040008090400080904000809040008EC
:1000C00009040008090400080904000809040008DC
:1000D00009040008090400080904000809040008CC
:1000E00009040008090400080904000809040008BC
:1000F00009040008090400080904000809040008AC
:10010000090400080904000809040008090400089B
:10011000090400080904000809040008090400088B
:10012000090400080904000809040008090400087B
:10013000090400080904000809040008090400086B
:10014000090400080904000809040008090400085B
:10015000090400080904000809040008090400084B
:10016000090400080904000809040008090400083B
:10017000090400080904000809040008090400082B
:10018000090400080904000880B582B000AF0346E6
:10019000FB71FA790C4913469B0013449B000B44F6
:1001A0001B68002B0AD0FA79074913469B001344B9
:1001B0009B000B441B689847034600E00423184645
:1001C0000837BD4680BD00BF0000002080B582B06A
:1001D00000AF0346FB71FA790C4913469B001344A8
:1001E0009B000B445B68002B0AD0FA790749134641
:1001F0009B0013449B000B445B689847034600E058
:10020000042318460837BD4680BD00BF000000200B
:1002100080B584B000AFB9607A603B600346FB7381
:100220003B68002B01D104231AE0FA7B0E491346E8
:100230009B0013449B000B4410331B68002B0ED013
:10024000FA7B094913469B0013449B000B4410336F
:100250001B68B86879683A689847034600E0042349
:1002600018461037BD4680BD0000002080B584B020
:1002700000AFB9607A603B600346FB733B68002BBC
:1002800001D104231AE0FA7B0E4913469B00134464
:100290009B000B4408335B68002B0ED0FA7B0949A6
:1002A00013469B0013449B000B4408335B68B868FB
:1002B00079683A689847034600E0042318461037E7
:1002C000BD4680BD0000002080B400AF0123184669
:1002D000BD465DF8047B704780B400AF012318462B
:1002E000BD465DF8047B704780B400AF012318461B
:1002F000BD465DF8047B704780B400AF012318460B
:10030000BD465DF8047B704780B483B000AF034600
:100310003960FB71012318460C37BD465DF8047B3C
:10032000704700BF80B483B000AF03463960FB71F3
:10033000012318460C37BD465DF8047B704700BFAB
:1003400080B485B000AFF860B9607A6001231846C8
:100350001437BD465DF8047B704700BF80B485B09C
:1003600000AFF860B9607A60012318461437BD46C3
:100370005DF8047B704700BF80B485B000AFF860C3
:10038000B9607A60012318461437BD465DF8047BD6
:10039000704700BF80B485B000AFF860B9607A6084
:1003A000012318461437BD465DF8047B704700BF33
:1003B00080B582B000AF0F4B7B600F4B3B6007E016
:1003C0003B681A1D3A607A68111D796012681A60DC
:1003D0003B680A4A9342F3D309480A494FF00002A6
:1003E0008842B8BF40F8042BFADB00F0A9F80837C0
:1003F000BD4680BDFA26000800000020CC00002089
:10040000CC0000203C01002080B400AFFEE700BF1C
:1004100080B588B000AFF860B9607A60BB68BB6136
:1004200001233B7703237B770023BB770223FB77F2
:100430007B683B6100233B7503237B750023BB7501
:100440000223FB75FB68354A934238D0334A934206
:1004500010D8334A934223D0314A934203D8314AC9
:10046000934218D045E0304A93421ED02F4A93421F
:1004700020D03EE02E4A93422BD02D4A934203D8FF
:100480002C4A934220D034E02B4A934226D02B4A68
:10049000934228D02DE00120012100F089F828E0C6
:1004A0000220012100F084F823E00420012100F063
:1004B0007FF81EE00820012100F07AF819E01020F2
:1004C000012100F075F814E02020012100F070F8FF
:1004D0000FE04020012100F06BF80AE080200121AC
:1004E00000F066F805E04FF48070012100F060F83C
:1004F00000BFBB68002B05D007F11803F868194648
:1005000001F0F6F87B68002B05D007F11003F868BE
:10051000194601F0EDF82037BD4680BD00100240BD
:10052000000402400000024000080240000C0240AB
:100530000018024000140240001C0240002002404B
:1005400080B5ADF50E7D00AF01F08CF93B1D18466E
:100550001549012201F040FE0346002B11D113483A
:100560004FF4E0410022FFF753FF10484FF4805151
:10057000012201F04BF900200B49012201F02CFE71
:100580000BE00A484FF4E0410022FFF741FF074823
:100590004FF48041012201F039F904484FF4005131
:1005A000012201F033F9FEE778250008000C024033
:1005B00080B483B000AF78600B46FB70FB78002BF3
:1005C00006D00949084B1A6B7B6813430B6306E09E
:1005D0000549054B1A6B7B68DB4313400B630C37F3
:1005E000BD465DF8047B70470038024080B400AF20
:1005F000034B1B78DBB21846BD465DF8047B7047A1
:10060000B400002080B400AF034B1B78DBB2184667
:10061000BD465DF8047B7047B400002080B483B011
:1006200000AF03463960FB71FB79042B0CD801A2A3
:1006300052F823F049060008490600084906000858
:10064000490600084906000800BF012318460C3778
:10065000BD465DF8047B704780B485B000AFF8609C
:10066000B9607A60012318461437BD465DF8047BF3
:10067000704700BF80B485B000AFF860B9607A60A1
:10068000012318461437BD465DF8047B704700BF50
:1006900080B483B000AF78600B46FB707B681B882A
:1006A0009BB203F04003002B01D1002325E000BFE3
:1006B0007B681B899BB203F00303002BF8D07B6897
:1006C0001B899BB203F08003002BF1D1FB789AB217
:1006D0007B689A8100BF7B681B899BB203F0030390
:1006E000002BF8D07B681B899BB203F08003002BA2
:1006F000F1D17B689B899BB2DBB218460C37BD46B3
:100700005DF8047B704700BF80B485B000AF7860AF
:10071000114B1B68BB60EFF30583FB60FB68002B8C
:1007200008D100BF0C4B1A68BB68D21A7B689A428A
:10073000F8D30CE008E0094B1B6803F48033002B6E
:1007400002D07B68013B7B607B68002BF3D11437C0
:10075000BD465DF8047B7047D400002010E000E047
:1007600080B500AF00F09AFD0548012100F0BCFD06
:10077000044B4FF480521A830A20FFF7C5FF80BD57
:10078000003800400004024080B582B000AF7860BD
:10079000396004487968FF223B6800F029FE083779
:1007A000BD4680BD0038004080B582B000AF7860A3
:1007B0003960044879683A6800F0D6FD0837BD46CC
:1007C00080BD00BF0038004080B584B000AF7860C5
:1007D0000C4A7B6813600C48FF21FFF759FF034662
:1007E000FB73FB7BFF2B03D0064B1B68002BF2D166
:1007F000FB7BFF2B0CBF01230023DBB21846103715
:10080000BD4680BDD80000200038004080B500AF54
:10081000044B4FF480521A830348FF21FFF738FF3F
:1008200080BD00BF000402400038004080B500AF2A
:100830000A4B4FF480525A830948FF21FFF728FFE3
:100840004FF4FA70FFF7C0FF0346002B01D00123DD
:1008500002E0FFF7DBFF0023184680BD00040240E2
:100860000038004080B584B000AF78603960134B29
:10087000C8221A601248FF21FFF70AFF0346FB73E4
:10088000FB7BFF2B03D10D4B1B68002BF2D1FB7BB5
:10089000FE2B01D000230CE078683968FFF774FF65
:1008A0000748FF21FFF7F4FE0548FF21FFF7F0FEA0
:1008B000012318461037BD4680BD00BFD800002078
:1008C0000038004080B584B000AF78600B46FB7004
:1008D0004FF4FA70FFF778FF0346002B01D1002395
:1008E00022E0FB7812481946FFF7D2FEFB78FD2B79
:1008F00019D078684FF40071FFF756FF0C48FF21BC
:10090000FFF7C6FE0A48FF21FFF7C2FE0848FF2195
:10091000FFF7BEFE0346FB73FB7B03F01F03052BB3
:1009200001D0002300E0012318461037BD4680BDEA
:100930000038004080B584B000AF03463960FB71D9
:10094000FB795BB2002B0EDAFB7903F07F03FB71BE
:1009500037200021FFF7EEFF0346BB73BB7B012B63
:1009600001D9BB7B59E0FB790C2B08D0FFF74EFF78
:10097000FFF75CFF0346002B01D1FF234DE0FB791D
:1009800043F04003DBB227481946FFF781FE3B687E
:100990001B0EDBB223481946FFF77AFE3B681B0C9F
:1009A000DBB220481946FFF773FE3B681B0ADBB237
:1009B0001C481946FFF76CFE3B68DBB21948194624
:1009C000FFF766FE0123FB73FB79002B01D1952312
:1009D000FB73FB79082B01D18723FB73FB7B114849
:1009E0001946FFF755FEFB790C2B03D10D48FF216B
:1009F000FFF74EFE0A23FB730A48FF21FFF748FE6C
:100A00000346BB73BB7B5BB2002B05DAFB7B013B70
:100A1000FB73FB7B002BEFD1BB7B18461037BD4629
:100A200080BD00BF0038004080B582B002AF012316
:100A300000930023019304484FF4805101220023C6
:100A400001F076FCBD4680BD0004024080B400AFDA
:100A500001231846BD465DF8047B704780B400AFA3
:100A600001231846BD465DF8047B704790B583B0FE
:100A700000AFFFF7D9FFFFF773FEFFF7E7FF03466D
:100A8000002B01D10223CCE00A23FB7106E067486A
:100A9000FF21FFF7FDFDFB79013BFB71FB79002B8B
:100AA000F5D100237B7100200021FFF743FF0346AF
:100AB000012B40F089805E4B4FF47A721A60082057
:100AC0004FF4D571FFF736FF0346012B51D10023B8
:100AD000FB710EE0FC795548FF21FFF7D9FD034675
:100AE0001A4607F10803234403F8082CFB79013365
:100AF000FB71FB79032BEDD9BB78012B64D1FB781B
:100B0000AA2B61D100BF4A4B1B68002B07D0A9203C
:100B10004FF08041FFF70EFF0346002BF3D1444B0B
:100B20001B68002B50D03A200021FFF703FF03463B
:100B3000002B49D10023FB710EE0FC793B48FF21DB
:100B4000FFF7A6FD03461A4607F10803234403F8FE
:100B5000082CFB790133FB71FB79032BEDD93B7832
:100B600003F04003002B01D00C2300E004237B7131
:100B70002AE0A9200021FFF7DDFE0346012B04D85F
:100B800002237B71A923BB7103E001237B71012345
:100B9000BB7100BF264B1B68002B07D0BB791846E2
:100BA0000021FFF7C7FE0346002BF3D1204B1B6843
:100BB000002B07D110204FF40071FFF7BBFE034656
:100BC000002B01D000237B711A4A7B791370FFF749
:100BD0001DFE7B79002B08D0174B1B78DBB223F06E
:100BE0000103DAB2144B1A7002E0134B01221A709F
:100BF000FFF734FF0346002B08D10F4B1B78DBB205
:100C000043F00403DAB20C4B1A7007E00A4B1B786E
:100C1000DBB223F00403DAB2074B1A70064B1B78E1
:100C2000DBB218460C37BD4690BD00BF003800400F
:100C3000D8000020CC000020B500002080B500AF17
:100C4000FFF704FF0346002B01D1012318E0FFF753
:100C500005FF0346002B08D10A4B1B78DBB243F09B
:100C60000403DAB2074B1A7007E0064B1B78DBB2BD
:100C700023F00403DAB2034B1A70024B1B78DBB289
:100C8000184680BDB500002080B584B000AFF86084
:100C9000B9607A60FFF7DAFE0346002B06D0284BD6
:100CA0001B78DBB203F00103002B01D0032343E0E8
:100CB000244B1B7803F00803002B02D1BB685B02B6
:100CC000BB607B68012B11D11120B968FFF732FEA0
:100CD0000346002B28D1F8684FF40071FFF7C2FDDE
:100CE0000346002B20D000237B601DE01220B96852
:100CF000FFF720FE0346002B16D1F8684FF4007171
:100D0000FFF7B0FD0346002B00D109E0FB6803F5B7
:100D10000073FB607B68013B7B607B68002BECD140
:100D20000C200021FFF706FEFFF770FD7B68002B0B
:100D300014BF01230023DBB218461037BD4680BD27
:100D4000B5000020CC00002080B584B000AFF86072
:100D5000B9607A60FFF77AFE0346002B01D10123C8
:100D600069E0FFF77BFE0346002B01D1022362E01E
:100D7000334B1B78DBB203F00103002B01D00323BC
:100D800059E02F4B1B78DBB203F00403002B01D09A
:100D9000022350E02B4B1B7803F00803002B02D1F9
:100DA000BB685B02BB607B68012B10D11820B9685F
:100DB000FFF7C0FD0346002B35D1F868FE21FFF791
:100DC00081FD0346002B2ED000237B602BE01D4BC2
:100DD0001B7803F00603002B03D097207968FFF7F8
:100DE000A9FD1920B968FFF7A5FD0346002B1AD10C
:100DF000F868FC21FFF766FD0346002B00D109E0EF
:100E0000FB6803F50073FB607B68013B7B607B68DC
:100E1000002BEDD10020FD21FFF754FD0346002BF0
:100E200001D101237B60FFF7F1FC7B68002B14BF2D
:100E300001230023DBB218461037BD4680BD00BF3A
:100E4000B5000020CC00002080B58CB000AF034678
:100E50003960FB71AC4B1B78DBB203F00103002B54
:100E600001D003234BE1FFF7F1FD0346002B01D135
:100E7000032344E1012387F82F30FB79042B00F290
:100E8000378101A252F823F09D0E0008B10E000830
:100E9000F11000085B0F00084F100008FFF7C6FCB8
:100EA0000346002B03D0002387F82F3023E122E1F3
:100EB00009200021FFF73EFD0346002B4CD107F12E
:100EC0000C0318461021FFF7CDFC0346002B43D03E
:100ED0003B7B9B09DBB2012B11D17B7D1A463B7D0D
:100EE0001B0213441A46FB7C03F03F031B0413440C
:100EF00001333B623B6A9A023B681A6028E07B7CC4
:100F000003F00F03DAB2BB7DDB09DBB21344DAB2C4
:100F10007B7D03F00303DBB25B00DBB21344DBB287
:100F2000023387F82E303B7D9B09DBB21A46FB7CEF
:100F30009B001A44BB7C03F003039B021344013360
:100F40003B6297F82E30093B3A6A9A403B681A6038
:100F5000002387F82F30CEE0CDE06C4B1B7803F0F8
:100F60000403002B31D08D200021FFF7E3FC034662
:100F7000002B6BD16648FF21FFF78AFB07F10C03BA
:100F800018461021FFF76EFC0346002B5ED030237D
:100F900087F82E3008E05E48FF21FFF779FB97F8CD
:100FA0002E30013B87F82E3097F82E30002BF2D1EF
:100FB000BB7D1B09DBB21A46102303FA02F23B6821
:100FC0001A60002387F82F3095E009200021FFF7F1
:100FD000B1FC0346002B39D107F10C031846102150
:100FE000FFF740FC0346002B30D0484B1B7803F042
:100FF0000203002B12D0BB7D03F03F035B00FA7DA0
:10100000D209D2B213445A1C7B7E9B09DBB2013B4E
:1010100002FA03F31A463B681A6013E0BB7D03F043
:101020007C039B109BB20133FA7D02F00302D200D5
:10103000F97D4909C9B20A44013202FB03F31A4699
:101040003B681A60002387F82F3054E053E02F4BA1
:101050001B7803F00603002B00D14CE007F10C03D2
:101060000B201946FFF7F0FE0346002B00D042E0AC
:101070003B7B9B09DBB2002B05D1BB7D03F040031A
:10108000002B00D137E03B68FB61FB691B68BB624A
:10109000FB695B687B621D4B1B7803F00803002B28
:1010A00005D1BB6A5B02BB627B6A5B027B6220206C
:1010B000B96AFFF73FFC0346002B18D12120796A5B
:1010C000FFF738FC0346002B11D126200021FFF743
:1010D00031FC0346002B0AD147F23050FFF774FB76
:1010E0000346002B03D0002387F82F3003E002E0F3
:1010F000042387F82F30FFF789FB97F82F30184625
:101100003037BD4680BD00BFB5000020CC000020B8
:101110000038004080B483B000AF03463960FB71F3
:1011200097F90730002B0BDA0D49FB7903F00F0319
:10113000043B3A68D2B21201D2B20B441A7609E0EB
:10114000084997F907303A68D2B21201D2B20B447B
:1011500083F800230C37BD465DF8047B704700BF61
:1011600000ED00E000E100E080B582B000AF786003
:101170007B68B3F1807F01D3012311E00A4A7B68C9
:1011800023F07F43013B53604FF0FF300F21FFF707
:10119000C1FF054B00229A60034B07221A6000230F
:1011A00018460837BD4680BD10E000E080B582B02B
:1011B00000AF374B1B680133354A1360354B1B6852
:1011C000002B04D0334B1B68013B324A1360AFF352
:1011D00000800023FB7152E0FB792F4A9B001344EF
:1011E0005B68002B48D0FB792B4A9B0013445B685B
:1011F0001B7B002B40D0FB79274A9B0013445B6884
:101200009B68002B38D0FB79234A9B0013445B6812
:101210009A68013A9A60FB791F4A9B0013445B6805
:101220009B68002B28D1FB791B4A9B0013445B6809
:101230001A69FB7918499B000B445B685B69184687
:101240009047FB79144A9B0013445A68FB79124972
:101250009B000B445B681B689360FB790E4A9B0004
:1012600013445B685B68002B06D1FB790A4A9B003C
:1012700013445B6800221A73FB790133FB71064B40
:101280001B78FA799A42A7D30837BD4680BD00BFC4
:10129000D4000020D8000020E000002080B500AF7E
:1012A0000C4B1B680C4AA2FB03239B091846FFF753
:1012B0005BFF0346002B00D0FEE7064B1B689B0933
:1012C000064AA2FB03239B0A054A1360054B012231
:1012D0001A7080BDB8000020D34D621017916502CE
:1012E00038010020DC00002080B584B002AF7860B7
:1012F0000B46FB707B68194A93420BD1FA784FF486
:101300008273009300230193144811460022202386
:1013100000F0B8F87B68124A93420BD1FA784FF488
:1013200082730093002301930D481146002220236D
:1013300000F0A8F87B680B4A93420BD1FA784FF47F
:101340008273009300230193064811460022202354
:1013500000F098F80837BD4680BD00BF003001405E
:1013600000380040003C004080B487B000AFF86017
:10137000B9607A60FB681B889BB203F04003002BC6
:1013800000D130E000BFFB681B899BB203F0030370
:10139000002BF8D0FB681B899BB203F08003002B65
:1013A000F1D100237B611AE0BA687B6913441B7892
:1013B0009AB2FB689A8100BFFB681B899BB203F05D
:1013C0000303002BF8D0FB681B899BB203F080035A
:1013D000002BF1D1FB689B897B6901337B617A69C2
:1013E0007B689A42E0D31C37BD465DF8047B7047AA
:1013F00080B487B000AFF860B9603B601346FB7102
:10140000FB681B889BB203F04003002B00D133E044
:1014100000BFFB681B899BB203F00303002BF8D0CD
:10142000FB681B899BB203F08003002BF1D10023E2
:101430007B611DE0FB799AB2FB689A8100BFFB6873
:101440001B899BB203F00303002BF8D0FB681B89B8
:101450009BB203F08003002BF1D1BA687B6913447F
:10146000FA68928992B2D2B21A707B6901337B61B9
:101470007A693B689A42DDD31C37BD465DF8047B30
:10148000704700BF80B588B000AF7860084611464D
:101490001A460346FB700B46BB7013463B8007F1B0
:1014A0000C03184600F020FF7B68394A93420BD1A9
:1014B000384A384B5B6C43F480535364FB781846CE
:1014C00000F06EF800233B827B68334A93420BD1D5
:1014D000304A304B1B6C43F480431364FB7818464E
:1014E00000F08CF800233B827B682C4A93420BD19E
:1014F000284A284B1B6C43F400431364FB781846BE
:1015000000F0C6F800233B823B883B830023BB816D
:10151000BB8D7B833B8DFB814FF40073FB82BB78DB
:10152000002B04D100237B820023BB8216E0BB7812
:10153000012B04D100237B820123BB820EE0BB7808
:10154000022B04D102237B820023BB8206E0BB78FE
:10155000032B03D102237B820123BB827B681B8880
:101560009BB223F040039AB27B681A8007F10C0308
:101570007868194600F074FE7B681B889BB243F0C4
:1015800040039AB27B681A802037BD4680BD00BFF9
:10159000003001400038024000380040003C00406C
:1015A00080B584B002AF0346FB71FB79002B09D1F3
:1015B00003230093052301930D48E021002200231B
:1015C00000F0D8FEFB79012B09D1032300930523FA
:1015D0000193084838210022002300F0CBFEFB795C
:1015E000032B02D10448AFF300800837BD4680BD0D
:1015F00000000240000402400030014080B584B089
:1016000002AF0346FB71FB79002B14D10323009337
:10161000052301931A484FF480610022002300F053
:10162000A9FE032300930523019316480C210022F1
:10163000002300F09FFEFB79012B0AD103230093C6
:10164000052301930E484FF460410022002300F06F
:1016500091FEFB79022B09D103230093052301930B
:1016600009480D210022002300F084FEFB79032BA2
:1016700002D10648AFF300800837BD4680BD00BFE9
:1016800000040240000802400020024000380040F0
:1016900080B584B002AF0346FB71FB79002B09D102
:1016A00003230093062301930E48382100220023D0
:1016B00000F060FEFB79012B0AD10323009306237F
:1016C000019309484FF4E0510022002300F052FE3C
:1016D000FB79032B02D10548AFF300800837BD46E4
:1016E00080BD00BF0004024000080240003C0040F2
:1016F00080B487B000AF7860396000237B6100233D
:101700003B610023FB6000237B6176E07B69012263
:1017100002FA03F33B613B681A683B691340FB60C4
:10172000FA683B699A4265D17B681A687B695B00FD
:10173000194603238B40DB431A407B681A607B68A1
:101740001A683B681B7919467B695B0001FA03F351
:101750001A437B681A603B681B79012B03D03B68F6
:101760001B79022B2ED17B689A687B695B00194636
:1017700003238B40DB431A407B689A607B689A683E
:101780003B685B7919467B695B0001FA03F31A43F6
:101790007B689A607B685A687B699BB21946012313
:1017A0008B40DB431A407B685A607B685B683A6811
:1017B000927911467A6992B201FA02F292B21A4310
:1017C0007B685A607B68DA687B699BB25B000321A7
:1017D00001FA03F3DB431A407B68DA607B68DA685E
:1017E0003B68DB7919467B695B0001FA03F31A4316
:1017F0007B68DA607B6901337B617B690F2B85D95C
:101800001C37BD465DF8047B704700BF80B483B0D1
:1018100000AF78600B467B8013467B707B78002B93
:1018200003D07B687A881A8302E07B687A885A83BF
:101830000C37BD465DF8047B704700BFABBE01E0CE
:1018400000207047002A00D01060012070470698E1
:101850000188034A914202D1043006907047FEE7A6
:10186000ABBE000080B500AF114A114B1B6843F0BE
:10187000010313600E4B00229A600D4A0C4B1B684B
:1018800023F0847323F480331360094B094A5A60B0
:10189000074A074B1B6823F480231360044B002284
:1018A000DA6000F00BF8044B4FF000629A6080BDE4
:1018B000003802401030002400ED00E080B483B016
:1018C00000AF00237B6000233B60354A344B1B682C
:1018D00043F480331360324B1B6803F400333B60E6
:1018E0007B6801337B603B68002B03D17B68B3F5D9
:1018F000A06FF0D12A4B1B6803F40033002B02D0F9
:1019000001233B6001E000233B603B68012B42D197
:10191000234A234B1B6C43F080531364214A214B11
:101920001B6843F4804313601D4A1D4B9B68936002
:101930001B4A1B4B9B6843F400439360184A184BA7
:101940009B6843F4A0539360154B174A5A60144A9E
:10195000134B1B6843F08073136000BF104B1B6870
:1019600003F00073002BF9D0104B40F205621A60AF
:101970000B4A0B4B9B6823F003039360084A084B08
:101980009B6843F00203936000BF054B9B6803F024
:101990000C03082BF9D10C37BD465DF8047B70476A
:1019A000003802400070004019544007003C0240DB
:1019B00080B586B000AF78600023FB737B681B792D
:1019C000002B36D07B681B6B7B617B685A787B6809
:1019D0003433104619467A690123FEF747FC034663
:1019E000002B02D00123FB7323E07B6800221A71D5
:1019F0007B685B6A7A69D21A7B68DB699A4218D283
:101A00007B68DB783B6111E07B68DB697A691344B2
:101A10007B617B685A787B683433104619467A6953
:101A20000123FEF723FC3B69013B3B613B69012B32
:101A3000EAD8FB7B18461837BD4680BD80B584B018
:101A400000AF786039600023FB737B681A6B3B68DA
:101A50009A421CD07868FFF7ABFF0346FB73FB7B11
:101A6000002B14D17B685A787B68343310461946B2
:101A70003A680123FEF7CCFB0346002B04D04FF05D
:101A8000FF333B600123FB737B683A681A63FB7B7F
:101A900018461037BD4680BD80B489B000AF78606D
:101AA0004FF0FF333B617B681B68002B70D07B6875
:101AB0001B68BB6102E0BB690133BB61BB691B787A
:101AC0001F2B03D9BB691B783A2BF4D1BB691B7858
:101AD0003A2B5AD17B681B68FB61FB695A1CFA617F
:101AE0001B78303B7B617B69092B10D8FA69BB6995
:101AF0009A420CD17B69082B08D87B693B61BB6992
:101B00000133BB617B68BA691A603CE03BE00023AB
:101B10007B61BB690133BB61214A7B6952F8233089
:101B2000FB607B681B68FB61FB685A1CFA601B78D2
:101B3000BB72FB695A1CFA611B78FB72FB7A602B43
:101B400005D9FB7A7A2B02D8FB7A203BFB72BB7A51
:101B5000002B03D0BA7AFB7A9A42E5D0BB7A002BED
:101B600003D1FA69BB699A4205D07B6901337B6175
:101B70007B69082BD0D97B69082B04D87B693B6132
:101B80007B68BA691A603B6903E0064B1B783B61CE
:101B90003B6918462437BD465DF8047B704700BF9B
:101BA000A82600081E01002080B582B000AF786032
:101BB00039607B6800221A717B684FF0FF321A632C
:101BC00078683968FFF73AFF0346002B01D00323FA
:101BD00043E07B6893F833321B029AB27B6893F838
:101BE00032329BB213439BB21BB21E4A934201D0C6
:101BF000022332E07B6893F86D301A067B6893F815
:101C00006C301B0413437A6892F86B201202134362
:101C10007A6892F86A20134323F07F43124A934272
:101C200001D1002319E07B6893F889301A067B689C
:101C300093F888301B0413437A6892F887201202C5
:101C400013437A6892F88620134323F07F43064AB1
:101C5000934201D1002300E0012318460837BD4616
:101C600080BD00BF55AAFFFF4641540080B596B025
:101C700000AFF860B9601346FB71FB6800221A6080
:101C8000B868FFF709FFF863FB6B002B01DA0B2341
:101C900095E29B4AFB6B52F82330BB63BB6B002B76
:101CA00001D10C238BE2FB68BA6B1A60BB6B1B780B
:101CB000002B1AD0BB6B5B781846FEF787FA0346F9
:101CC00087F8373097F8373003F00103002B0CD139
:101CD000FB79002B07D097F8373003F00403002B73
:101CE00001D00A236BE2002369E2BB6B00221A7069
:101CF000FB6BDAB2BB6B5A70BB6B5B781846FEF7B6
:101D000043FA034687F8373097F8373003F001037A
:101D1000002B01D0032352E2FB79002B07D097F868
:101D2000373003F00403002B01D00A2347E20023DD
:101D30003B65B86B396DFFF737FF034687F85730BF
:101D400097F85730012B57D100233B642BE03B6CB5
:101D50001B0103F5DF733033BA6B134404333B6369
:101D60003B6B04331B78002B12D03B6B0B331B787F
:101D70001A063B6B0A331B781B0413433A6B093278
:101D80001278120213433A6B083212781A4300E0B9
:101D900000223B6C9B0007F158010B4443F8442C94
:101DA0003B6C01333B643B6C032BD0D900233B6479
:101DB0003B6C002B02D03B6C013B3B643B6C9B00BB
:101DC00007F15802134453F8443C3B653B6D002B2C
:101DD00005D0B86B396DFFF7E7FE034600E002233C
:101DE00087F8573097F85730002B05D03B6C0133FC
:101DF0003B643B6C032BE1D997F85730032B01D19F
:101E00000123DCE197F85730002B01D00D23D6E1F8
:101E1000BB6B93F840301B029AB2BB6B93F83F3018
:101E20009BB213439BB21BB2B3F5007F01D00D23CD
:101E3000C5E1BB6B93F84B301B029AB2BB6B93F8B6
:101E40004A309BB213439BB29BB2FB64FB6C002BEA
:101E500012D1BB6B93F85B301A06BB6B93F85A3008
:101E60001B041343BA6B92F8592012021343BA6B46
:101E700092F858201343FB64BB6BFA6CDA61BB6BBE
:101E800093F84420BB6BDA70BB6BDB78012B05D079
:101E9000BB6BDB78022B01D00D2390E1BB6BDB78B1
:101EA0001A46FB6C02FB03F3FB64BB6B93F8412007
:101EB000BB6B9A70BB6B9B78002B08D0BB6B9B787D
:101EC0001A46BB6B9B78013B1340002B01D00D23BE
:101ED00075E1BB6B93F846301B029AB2BB6B93F86B
:101EE00045309BB213439BB29AB2BB6B1A81BB6B5A
:101EF0001B8903F00F039BB2002B03D00D235EE17F
:101F0000F8000020BB6B93F848301B029AB2BB6B01
:101F100093F847309BB213439BB29BB2BB64BB6C3C
:101F2000002B12D1BB6B93F857301A06BB6B93F89A
:101F300056301B041343BA6B92F855201202134318
:101F4000BA6B92F854201343BB64BB6B93F84330D5
:101F50001B029AB2BB6B93F842309BB213439BB205
:101F6000FB85FB8D002B01D10D2328E1FA8DFB6C45
:101F70001344BA6B1289120992B21344BB62BA6C51
:101F8000BB6A9A4201D20D2319E1BA6CBB6AD31A1B
:101F9000BA6B9278B3FBF2F37B627B6A002B01D1C0
:101FA0000D230CE1012387F857307B6A40F6F57268
:101FB000934202D9022387F857307B6A4FF6F572B5
:101FC000934202D9032387F857307B6A9A1CBB6B74
:101FD0009A61BB6B3A6D1A62FA8D3B6D1A44BB6B0A
:101FE0005A623A6DBB6A1A44BB6BDA6297F8573093
:101FF000032B1ED1BB6B1B89002B01D00D23DEE010
:10200000BB6B93F863301A06BB6B93F862301B040A
:102010001343BA6B92F8612012021343BA6B92F821
:1020200060201A43BB6B9A62BB6B9B699B007B640D
:102030001FE0BB6B1B89002B01D10D23BFE0BB6BE5
:102040005A6AFB6C1A44BB6B9A6297F85730022BA2
:1020500003D1BB6B9B695B000AE0BB6B9A691346BB
:102060005B0013445A08BB6B9B6903F001031344E4
:102070007B64BB6BDA697B6C03F2FF135B0A9A42E9
:1020800001D20D239BE0BB6B4FF0FF321A61BB6B9B
:102090001A69BB6BDA60BB6B80225A7197F85730B4
:1020A000032B7AD1BB6B93F865301B029AB2BB6BE2
:1020B00093F864309BB213439BB21BB2012B6CD1DB
:1020C0003B6D0133B86B1946FFF7B8FC0346002B94
:1020D00063D1BB6B00225A71BB6B93F833321B0286
:1020E0009AB2BB6B93F832329BB213439BB21BB2D2
:1020F000354A934251D1BB6B93F837301A06BB6B0C
:1021000093F836301B041343BA6B92F83520120251
:102110001343BA6B92F8342013432C4A93423CD1B8
:10212000BB6B93F81B321A06BB6B93F81A321B0475
:102130001343BA6B92F8192212021343BA6B92F846
:1021400018221343224A934227D1BB6B93F81F32C4
:102150001A06BB6B93F81E321B041343BA6B92F83A
:102160001D2212021343BA6B92F81C221A43BB6B56
:102170001A61BB6B93F823321A06BB6B93F82232B9
:102180001B041343BA6B92F8212212021343BA6B59
:1021900092F820221A43BB6BDA60BB6B97F857208A
:1021A0001A700C4B1B8801339AB20A4B1A80094BE8
:1021B0001A88BB6BDA80BB6B00225A610023184679
:1021C0005837BD4680BD00BF55AAFFFF525261413E
:1021D000727241611C01002080B588B000AFF860C8
:1021E000B9601346FB71BB683B6107F110031846E9
:1021F000FFF752FCF861FB69002B01DA0B2329E0A1
:10220000164AFB6952F82330BB61BB69002B02D030
:10221000BB6900221A70FB68002B02D0FB68002209
:102220001A70FA680D49FB6941F82320FB68002BFE
:1022300002D0FB79012B01D000230BE007F10C0247
:1022400007F10803104619460022FFF70FFD034669
:10225000FB75FB7D18462037BD4680BDF800002089
:1022600080B485B000AF786039600023FB817B6863
:102270001B88FB81FB8903F44153FB813B681A886F
:102280003B685B8813439AB23B689B8813439AB2BE
:102290003B68DB8813439AB23B681B8913439AB2AD
:1022A0003B685B8913439AB23B689B8913439AB29C
:1022B0003B68DB8913439AB2FB891343FB817B683C
:1022C000FA891A807B689B8B9BB223F400639AB2D5
:1022D0007B689A833B681A8A7B681A821437BD46EA
:1022E0005DF8047B704700BF80B483B000AF7860B6
:1022F0007B6800221A807B6800225A807B6800225B
:102300009A807B680022DA807B6800221A817B68D1
:1023100000225A817B6800229A817B680022DA8140
:102320007B6807221A820C37BD465DF8047B704734
:1023300090B585B002AF7860084611461A4603464C
:102340007B800B467B7013463B707B88002B00D153
:102350000DE0786800F074F879887A783C783B7EF4
:1023600000933B7F01937868234600F07FF80C3799
:10237000BD4690BD90B587B002AF78600846114663
:102380001A4603467B800B467B7013463B707B8866
:10239000002B00D13EE0786800F052F80023FB608B
:1023A00028E07A88FB6842FA03F303F00103002B6C
:1023B00000D11CE0FB68DA08FB68D9087B680831AB
:1023C00053F82130F96801F00701890008460F2110
:1023D0008140C9430B4097F82410F86800F00700CB
:1023E0008000814019437B68083243F82210FB6863
:1023F0000133FB60FB680F2BD3D97A887C783B785C
:10240000009397F820300193786811460222234602
:1024100000F02CF81437BD4690BD00BF80B483B0E7
:1024200000AF78607B6803F13F4303F57E039B0AAE
:102430009BB218460C37BD465DF8047B704700BF61
:1024400080B582B000AF78607868FFF7E7FF034699
:102450001A46012303FA02F1034A034B1B6B0B4399
:1024600013630837BD4680BD0038024080B584B094
:1024700000AF7860084611461A4603467B800B463B
:102480007B7013463B707868FFF7C8FF0346BB7349
:102490000023FB7367E07A88FB7B42FA03F303F0C7
:1024A0000103002B00D15BE0BB7BBA7B314931F8E3
:1024B000122090B2FA7B012101FA02F292B2014697
:1024C0000A4392B291B22B4A22F813107B68DB6860
:1024D000FA7B5200032101FA02F2D2431340397E03
:1024E000FA7B520001FA02F21A437B68DA607B68D9
:1024F0001A68FB7B5B00032101FA03F3DB43134003
:102500007978FA7B520001FA02F21A437B681A606A
:102510007B78012B02D07B78022B21D17B685B6812
:10252000FA7B012101FA02F292B2D24313403978C8
:10253000FA7B01FA02F292B21A437B685A607B6816
:102540009A68FB7B5B00032101FA03F3DB43134032
:10255000397FFA7B520001FA02F21A437B689A60D3
:10256000FB7B0133FB73FB7B0F2B94D91037BD46EC
:1025700080BD00BF20010020000000008081828318
:102580008485868788898A8B8C8D8E8F9091929393
:10259000949596979899AD9B8C9DAE9FA021A2A3F0
:1025A000A4A5A6A7A8A9AAABACADAEAFB0B1B2B373
:1025B000B4B5B6B7B8B9BABBBCBDBEBFC0C1C2C363
:1025C000C4C5C6C7C8C9CACBCCCDCECFD0D1D2D353
:1025D000D4D5D6D7D8D9DADBDCDDDEDFC0C1C2C3C3
:1025E000C4C5C6C7C8C9CACBCCCDCECFD0D1D2D333
:1025F000D4D5D6F7D8D9DADBDCDDDE9F01030507B9
:10260000090E10121416181C1E000000222A3A3C53
:102610003E3F7C7F000000002B2C3B3D5B5D0000BB
:10262000222A2B2C2E3A3B3C3D3E3F5B5D7C7F00BB
:10263000EBFE904D53444F53352E30004E4F204EFD
:10264000414D452020202046415433322020200097
:102650004E4F204E414D4520202020464154202001
:10266000202020005344000055534200534452415F
:102670004D000000535049464C41534800000000B3
:10268000524655310000000052465532000000000D
:1026900052465533000000005553455231000000AA
:1026A0005553455232000000642600086826000891
:1026B0006C2600087426000880260008882600087A
:1026C0009026000898260008A026000800040002B2
:1026D00000018000400020001000080004000200FB
:1026E00000000000008000400020001000080040B2
:0A26F00000200010000800040002A2
:1026FA006D0A00083D0C0008490E0008490D000843
:10270A00890C0008C9020008E90200080903000848
:10271A007903000841030008D9020008F9020008F9
:10272A0025030008950300085D030008ED0500086D
:10273A00050600081D060008750600085906000867
:10274A00000000000000000000000000000000007F
:10275A00000000000000000000000000000000006F
:10276A00000000000000000000000000000000005F
:10277A00000000000000000000000000000000004F
:10278A00000000000000000000000000000000003F
:10279A00000000000000000000000000000000002F
:1027AA000000000001010000007A030A0000000096
:0C27BA00000000000102030406070809EB
:0400000508000000EF
:00000001FF
